:020000040800F2
:100000000410002091010008850100088501000806
:1000100085010008850100088501000880B500AF52
:1000200000F06CF84FF0010000F040F880BD00BF18
:1000300080B500AF00F02EF803461A4640F20003E8
:10004000C2F200031A7040F20003C2F200031B78F0
:10005000142B07D94FF0000000F028F84FF03C00B7
:1000600000F006F84FF0010000F020F8E2E700BFD2
:1000700080B483B000AF786003E07B6803F1FF33A6
:100080007B607B68002BF8D107F10C07BD4680BC74
:10009000704700BF80B400AF40F60803C4F201030C
:1000A0001B68DBB21846BD4680BC704780B483B085
:1000B00000AF78607B68012B0CD140F60C03C4F2D2
:1000C000010340F60C02C4F20102126842F400522D
:1000D0001A600EE07B68002B0BD140F60C03C4F2D3
:1000E000010340F60C02C4F20102126822F400522D
:1000F0001A6007F10C07BD4680BC704780B400AFA2
:1001000041F21803C4F2020341F21802C4F20202DF
:10011000126842F004021A604FF40063C4F2010353
:100120004FF40062C4F2010212681A604FF40063D7
:10013000C4F201034FF40062C4F2010212681A60B3
:1001400040F60403C4F2010340F60402C4F20102C3
:1001500012681A6040F60403C4F2010340F6040278
:10016000C4F20102126842F022321A60BD4680BC1D
:10017000704700BF80B500AFFFF750FFFFF758FF93
:10018000184680BD80B500AF00F002F880BD00BF0A
:1001900080B586B000AF40F20002C2F2000240F229
:1001A0000003C2F20003D31ABB6040F24823C0F63A
:1001B00000037B6140F20003C2F200033B614FF099
:1001C0000003FB604FF00003FB600FE07B691A78CF
:1001D0003B691A703B6903F101033B617B6903F1E1
:1001E00001037B61FB6803F10103FB60FA68BB68F4
:1001F0009A42EBD340F20402C2F2000240F2000342
:10020000C2F20003D31A7B6040F20003C2F2000383
:100210003B614FF00003FB600BE03B694FF00002D5
:100220001A703B6903F101033B61FB6803F10103B1
:10023000FB60FA687B689A42EFD3FFF79BFF07F1F8
:080240001807BD4680BD00BF98
:0400000508000000EF
:00000001FF
