:100000000C942A000C944F000C9434000C9434008F
:100010000C9434000C9434000C9434000C94340090
:100020000C9434000C9434000C9434000C94340080
:100030000C9434000C9434000C9434000C94340070
:100040000C9434000C9434000C9434000C94340060
:100050000C94340011241FBECFE5D8E0DEBFCDBF25
:100060000E9441000C9461000C9400008BB78064E6
:100070008BBF85B7836085BF08958FB780688FBFBA
:1000800008958AB381608ABB8BB38E7F8BBB81B3AB
:10009000817081BB0E9436000E943D00FFCF1F92FD
:1000A0000F920FB60F9211248F939F939BB381E011
:1000B00089278BBB9F918F910F900FBE0F901F9040
:0600C0001895F894FFCF33
:00000001FF
