S01B000041746D6567615F55534152545F4472697665722E7372656301
S11300000C942A000C943F000C943F000C943F0085
S11300100C943F000C943F000C943F000C943F0060
S11300200C943F000C943F000C943F000C943F0050
S11300300C943F000C943F000C943F000C943F0040
S11300400C943F000C943F000C943F000C943F0030
S11300500C943F0011241FBECFE5D8E0DEBFCDBF16
S113006010E0A0E6B0E0E4E6F2E002C005900D92F4
S1130070A437B107D9F70E9402010C9430010C9403
S11300800000FC018081813051F018F0823021F0B1
S113009008C088E18AB905C088E08AB902C080E155
S11300A08AB98181813031F040F0823049F0833067
S11300B051F00DC080EC80BD0AC081EC80BD07C04A
S11300C080E880BD04C080E880BD82E08BB980B543
S11300D08F7780BD868180BD858189B980B5928105
S11300E0292F30E0220F331F282B206820BD20B594
S11300F0938130E1939FC0011124822B806880BDDD
S11301008481882331F0813051F480B5886880BDC2
S1130110089580B5806880BD80B5877F80BD0895CF
S11301205D9BFECFFC018281873049F470FF04C0DF
S11301308AB181608AB903C08AB18E7F8AB96CB9E9
S11301400895EF92FF920F931F93CF93DF9300D004
S1130150CDB7DEB79A8389837B0100E010E007C046
S113016070E0CE0101960E9490000F5F1F4FF701CF
S1130170E00FF11F60816111F3CF0F900F90DF91B9
S1130180CF911F910F91FF90EF9008955F9BFECF49
S1130190FC018281873021F48AB18695817001C087
S11301A080E090E0982F88272CB1822B0895CF927D
S11301B0DF92EF92FF920F931F93CF93DF9300D0C0
S11301C0CDB7DEB79A8389836B0100E010E0760136
S11301D0E00EF11ECE0101960E94C600F701808355
S11301E08D3019F00F5F1F4FF2CFF70110820F907F
S11301F00F90DF91CF911F910F91FF90EF90DF90BF
S1130200CF900895CF93DF93CDB7DEB76B970FB63A
S1130210F894DEBF0FBECDBF1D8A82E08E8B87E0CF
S11302208F8B83E390E09B8F8A8F198E188ECE017B
S113023045960E94410060E670E0CE0145960E941A
S1130240A100BE016F5F7F4FCE0145960E94D7008B
S1130250BE016F5F7F4FCE0145960E94A100FFCF84
S1070260F894FFCF3C
S11302644F6D6172204164656C205368616C6161F7
S10702746E0D000007
S9030000FC
