:1000000000040020D5000000C9000000C900000065
:10001000C9000000C9000000C900000080B483B01E
:1000200000AF4FF000037B604EF20813C4F20F03E1
:100030004FF020021A604FF000037B6003E07B6802
:1000400003F101037B607B68C72BF8D94FF4A84309
:10005000C4F202034FF4A842C4F20202126842F052
:1000600008021A6045F21C53C4F2020345F21C5206
:10007000C4F20202126842F008021A6045F2FC3330
:10008000C4F2020345F2FC32C4F20202126842F0EA
:1000900008021A6045F2FC33C4F2020345F2FC3256
:1000A000C4F20202126882F008021A604FF00003E4
:1000B0007B6003E07B6803F101037B607A6841F2B7
:1000C00087339A42F6D9E5E780B500AF00F002F831
:1000D00080BD00BF80B586B000AF40F28C12C0F288
:1000E000000240F28C13C0F20003D31ABB6040F24E
:1000F0008C13C0F200037B6140F28C13C0F200034A
:100100003B614FF00003FB604FF00003FB600FE02A
:100110007B691A783B691A703B6903F101033B6103
:100120007B6903F101037B61FB6803F10103FB6061
:10013000FA68BB689A42EBD340F20042C2F2000276
:1001400040F20003C2F20003D31A7B6040F20003C6
:10015000C2F200033B614FF00003FB600BE03B6920
:100160004FF000021A703B6903F101033B61FB6829
:1001700003F10103FB60FA687B689A42EFD3FFF753
:0C0180004DFF07F11807BD4680BD00BF11
:00000001FF
